:100000000C943E000C94A5000C945B000C945B00D7
:100010000C945B000C945B000C945B000C945B00F4
:100020000C945B000C945B000C945B000C945B00E4
:100030000C945B000C947E000C945B000C945B00B1
:100040000C945B000C945B000C945B000C945B00C4
:100050000C945B000C945B000C945B000C945B00B4
:100060000C945B000C945B000C945B000C945B00A4
:100070000C945B000C945B000C945B0011241FBE7D
:10008000CFEFD8E0DEBFCDBF11E0A0E0B1E0E8EBFC
:10009000F7E102C005900D92A439B107D9F721E02C
:1000A000A4E9B1E001C01D92A739B207E1F70E94AF
:1000B00061090C94DA0B0C9400001092960122E076
:1000C00026BB109285001092840090938900809343
:1000D000880010928000E1E8F0E080818D608083EC
:1000E00010928200EFE6F0E08081826080830895C4
:1000F000EFE6F0E080818D7F808308951F920F925C
:100100000FB60F9211242F933F934F935F936F93EA
:100110007F938F939F93AF93BF93EF93FF9381E070
:10012000809396010E947800FF91EF91BF91AF916B
:100130009F918F917F916F915F914F913F912F91FF
:100140000F900FBE0F901F9018951F920F920FB631
:100150000F9211242F933F934F935F936F937F934D
:100160008F939F93AF93BF93EF93FF9380919601EB
:1001700081111DC08FE59AEE0197F1F700C00000D4
:100180004A9B15C04A99FECF809195018F5F80935D
:100190009501809195018A3019F481E08093950151
:1001A00081E08093940188E09DE30E945D00FF91CF
:1001B000EF91BF91AF919F918F917F916F915F91DF
:1001C0004F913F912F910F900FBE0F901F90189558
:1001D000F8948FEF87B911B884B980EC8AB9E89A9E
:1001E000E9E6F0E0808181608083109294011092B2
:1001F0009601789408950F931F93CF93DF931F92E6
:10020000CDB7DEB7182FCE0101960E943409612FB9
:10021000CE0101960E943D098C01CE0101960E94FB
:100220003A09C80196958795969587950F90DF9125
:10023000CF911F910F91089580E00E94FB008C38B0
:10024000D0F4409A81E00E94FB008C38B0F4419ACF
:1002500082E00E94FB008C3890F4429A83E00E9476
:10026000FB008C3870F4439A84E00E94FB008C38C9
:1002700050F4449A08954098E5CF4198E9CF4298C8
:10028000EDCF4398F1CF44980895CF930E941C017D
:1002900080E00E94FB00C1E08C3808F0C0E081E003
:1002A0000E94FB008C3808F4C26082E00E94FB00D0
:1002B0008C3808F4C46083E00E94FB008C3808F49A
:1002C000C86084E00E94FB008C3808F4C0618C2F69
:1002D000CF910895CF92DF92EF92FF920F931F93E9
:1002E000CF93DF93EC01D12CF12C00EA8AE0E82EC9
:1002F0009BE9C92E0E941C01FF2009F47FC00E94C7
:1003000045018F3051F008F069C0813009F4A6C072
:1003100008F471C0873009F068C00883098320E0C1
:1003200040E060EA86E90E943F0581E50E945205AF
:100330002FE788E391E0215080409040E1F700C032
:1003400000000E9487058FE39CE90197F1F700C048
:10035000000081E50E9452059FE728E381E091506B
:1003600020408040E1F700C000000E9487059FEF19
:1003700021EE84E0915020408040E1F700C0000071
:10038000D39493E0D912A5C0898120E040E0688130
:100390008A500E943F052FEF81EE94E0215080406B
:1003A0009040E1F700C000001F2DF12C898120E072
:1003B00040E068818A500E943F05112309F49ACFDA
:1003C00020E040E060E080E0DF91CF911F910F914D
:1003D000FF90EF90DF90CF900C943F058C3109F4A3
:1003E0009CCF28F4803109F436C010E0DFCF8E5165
:1003F0008230D8F792CF08830983F7CF0E94450156
:10040000803298F7E82FF0E0E85FFD4F0C94610A26
:100410003002F5012B022B022802F5012B023202D9
:10042000F501F501F501F5012E02F501F501F501E2
:100430002E02F501F501F501F501F501F501F501D2
:100440002E02F501F501F5013202F501F501320246
:10045000C882C982CACF0883E982C7CF1882CCCFAD
:100460001882FACF0883098320E040E060EA86E939
:100470000E943F0581E50E9452052FE788E391E045
:10048000215080409040E1F700C000000E948705A5
:100490008FE39CE90197F1F700C0000081E50E941D
:1004A00052059FE728E381E0915020408040E1F72A
:1004B00000C000000E9487059FEF21EE84E091506C
:1004C00020408040E1F700C0000010E0FF24F394DA
:1004D0006DCFF12C8ACFEF92FF920F931F93CF93A2
:1004E000DF93EC017B018A0120E040E06FEF8FEFAA
:1004F0000E943F052FE788E391E021508040904023
:10050000E1F700C0000080EA8983888320E040E0B2
:1005100060EA88E90E943F0590E080E08E159F0523
:1005200044F4EFECF7E03197F1F700C000000196DA
:10053000F5CF20E040E060E080E00E943F05FFEF63
:1005400024E38CE0F15020408040E1F700C000003F
:1005500080EA8983888320E041E06FEF8FEF0E947B
:100560003F059FEFE0E7F2E09150E040F040E1F717
:1005700000C00000898120E041E0688188500E942D
:100580003F0584E992E0EFECF7E03197F1F700C026
:1005900000000197C1F720E040E060E080E00E94A9
:1005A0003F05FFEF24E38CE0F15020408040E1F76D
:1005B00000C0000080EA8983888320E040E060EA90
:1005C00088E90E943F0590E080E08017910744F49D
:1005D000EFECF7E03197F1F700C000000196F5CF9E
:1005E00020E040E060E080E00E943F05FFEF24E370
:1005F0008CE0F15020408040E1F700C0000080EA2C
:100600008983888321E040E06FEF8FEF0E943F05F0
:100610009FEFE0E7F2E09150E040F040E1F700C0EA
:100620000000898121E040E0688188500E943F05F8
:100630008EEE92E0EFECF7E03197F1F700C00000AA
:100640000197C1F720E040E060E080E00E943F05B4
:10065000FFE728E381E0F15020408040E1F700C04F
:1006600000008DE20E9452059FEFEDE3F9E4915006
:10067000E040F040E1F700C000000E94870580EAFA
:100680008983888321E040E06FEF8FEF0E943F0570
:100690002FEF80E792E0215080409040E1F700C0CA
:1006A0000000898121E040E0688188500E943F0578
:1006B0008EEE92E0EFECF7E03197F1F700C000002A
:1006C0000197C1F720E040E060E080E00E943F0534
:1006D000FFE728E381E0F15020408040E1F700C0CF
:1006E00000008DE20E9452059FEFEDE3F9E4915086
:1006F000E040F040E1F700C000000E94870580EA7A
:100700008983888320E040E060EA86E90E943F0513
:1007100090E080E08017910744F4EFECF7E0319728
:10072000F1F700C000000196F5CF20E040E060E066
:1007300080E00E943F05FFEF24E38CE0F150204071
:100740008040E1F700C0000080EA8983888320E0D0
:1007500041E06FEF8FEF0E943F059FEFE0E7F2E08F
:100760009150E040F040E1F700C00000898120E0B6
:1007700041E0688188500E943F0584E992E0EFECF7
:10078000F7E03197F1F700C000000197C1F720E0D2
:1007900040E060E080E00E943F05FFEF24E38CE052
:1007A000F15020408040E1F700C0000010E000E080
:1007B00086E9E82EE982E882003991E0190760F4C1
:1007C00020E040E066E98EE80E943F050E94450176
:1007D000FF24F394811101C0F12CC801825991408A
:1007E000863C910568F4898121E040E06881885069
:1007F0000E943F050E944501882311F0FF24F394D5
:10080000C8018A5592408E38914068F4898120E071
:1008100041E0688188500E943F050E94450188237D
:1008200011F0FF24F394C8018A5E9340863C910541
:10083000F0F4898121E040E0688188500E943F0502
:100840000E944501882311F0FF24F3940F5F1F4F8E
:10085000FF2009F4AFCF20E040E060E080E0DF91CE
:10086000CF911F910F91FF90EF900C943F05023BA9
:10087000F4E01F0758F310E000E0E8CF6150693062
:1008800088F5E62FF0E0E95BFB4F0C94610A500419
:10089000560459045C046104640467046C046F0426
:1008A00047E35AE06CE87AE00C946B0243E458E0CA
:1008B000F9CF4FE456E0F6CF47E35AE068E978E035
:1008C000F3CF43E458E0FACF4FE456E0F7CF47E3E5
:1008D0005AE064EA76E0E8CF43E458E0FACF4FE428
:1008E00056E0F7CF0895AF92BF92CF92DF92EF928A
:1008F000FF920F931F93CF93DF93EC01B62E7A01F3
:1009000006E98CE8C82E95EAD92E2AE0A22E0E948C
:1009100045018150883100F5E82FF0E0EE56FB4F9D
:100920000C94610AAE04AE04AE04AA04AC04B40490
:10093000B904B104AC04AC04AC04B704AC04AC041A
:10094000B904B104AC04AC04AC04AC04AC04AC0415
:10095000AC04B1040883098310E028C0D882A982BE
:10096000FBCF1882D982F8CFD882C982F5CFC8824E
:10097000F9CF08830983F70180818F5F8530D0F537
:100980008083898120E040E068818A500E943F0591
:10099000FFEF29E688E1F15020408040E1F700C0F8
:1009A0000000F70180818B1127C011E0898120E0D0
:1009B00040E068818A500E943F05112309F4A7CFC7
:1009C00020E040E060E080E00E943F059FEFE4E32C
:1009D000FCE09150E040F040E1F700C00000DF9102
:1009E000CF911F910F91FF90EF90DF90CF90BF902C
:1009F000AF90089581E0C4CF20E041E06DE783E748
:100A00000E943F05F7018081813049F4FFEF20E724
:100A100082E0F15020408040E1F700C000000E94D9
:100A200045018430E1F7C1CF282F3FEF3AB9639FEA
:100A3000C0011124E4E6F0E0BF010E944D0A70936A
:100A4000890060938800239FC0011124BF010E9488
:100A50004D0A70938B0060938A00413059F45E9A7E
:100A60005F9A81EA8093800082E0809381001092F7
:100A7000820008958BB11BB88BB11BB8F2CF9FEFEA
:100A800094B987BD68BD442349F02A9A222341F0D6
:100A90002D9A81EA84BD82E085BD08952A98F6CF1B
:100AA0002D98F7CFE0EBF0E0908192649083E1EB3A
:100AB000F0E0908194609083282F2D52330BF90140
:100AC000EE0FFF1FEE0FFF1FE050FF4F208131811F
:100AD0004281538160E070E080E89FE30E947B0ADE
:100AE00020E034E244EF5AE40E946D0B20E030E055
:100AF00040E05FE30E946D0B20E030E040E85BE304
:100B00000E946D0B0E94ED0A6093B3000895E0EB24
:100B1000F0E0808110820895BF92CF92DF92EF9231
:100B2000FF920F931F93CF93DF93EC0197EAC92EA7
:100B30009DEFD92EF12CE12C0AE023E7B22E0E9482
:100B40001C0187EEC81683E0D80638F0C60184552C
:100B50009B40873E934008F0ABC00E944501815006
:100B60008E3108F02AC0E82FF0E0E754FA4F0C94D9
:100B7000610AE305DA05E305D705DD05E305E905C7
:100B8000DF05DD05DD05DD05E705DD05DD05E9053D
:100B9000E705DD05DD05DD05DD05DD05DD05DD053B
:100BA000E705DD05DD05DD052F06DD052F0687E8F8
:100BB000888307C087E88883B98210E014C0B882B0
:100BC00087E88983FACF87E888830983F6CF18827C
:100BD000F7CF82E0E816F10439F51882098311E0B5
:100BE00082E0E82EF12C898120E040E068818A5083
:100BF0000E943F052AE3C2162FE0D20631F02FEF04
:100C0000C21AD20A112309F49ACF20E040E060E032
:100C100080E0DF91CF911F910F91FF90EF90DF90D7
:100C2000CF90BF900C943F0520E040E067E88DE74F
:100C30000E943F059FEF27E883E1915020408040CC
:100C4000E1F700C000000E94450120E0843009F473
:100C5000AEC041E067E88DE70E943F05F4CF22E097
:100C6000E216F10409F4B9CF20E040E069EB8FEA25
:100C70000E943F058FEF97E823E18150904020408C
:100C8000E1F700C000000E944501843039F021E006
:100C900040E067E88DE70E943F05F5CF20E040E0A7
:100CA00060E080E00E943F058FEFE81AF80A85CFE8
:100CB0000E94450181508E3108F07FCFE82FF0E08F
:100CC000EC59F94F0C94610A8B0684068B06820658
:100CD000DD058B068F068706DD05DD05DD058D0646
:100CE000DD05DD058F068D06DD05DD05DD05DD0590
:100CF000DD05DD05DD058D06DD05DD05DD05B70658
:100D0000DD05B70689EB54CF89EB888359CF87E897
:100D1000888389EB56CF89EB57CF1882FACF92E0C0
:100D2000E916F10409F459CF20E040E066E98CE8C7
:100D30000E943F052FEF87E893E1215080409040CB
:100D4000E1F700C000000E94450120E0843031F04E
:100D500041E067E88DE70E943F05F5CF40E060E0A5
:100D600080E00E943F052FEFE21AF20A26CF82E0D0
:100D7000E816F10409F431CF20E040E067E88DE7A0
:100D80000E943F059FEF27E883E19150204080407B
:100D9000E1F700C000000E944501843039F021E0F5
:100DA00040E067E88DE70E943F05F5CF20E040E096
:100DB00060E080E00E943F059FEFE91AF90AFDCE4E
:100DC0004F925F926F927F928F929F92AF92BF925B
:100DD000CF92DF92EF92FF920F931F93CF93DF9307
:100DE00000D01F92CDB7DEB79B838A8310EA5AE00A
:100DF000F52E6BE9E62E0E944501883009F460C0AB
:100E000050F4843009F452C0873059F0823009F42C
:100E100052C000E00BC08C3121F008F042C08F308E
:100E2000C1F7EA81FB81F182108201E0EA81FB8156
:100E3000818120E040E060818A500E943F050023CC
:100E4000D1F220E040E060E080E00E943F050E9497
:100E50001C014A9BFCCF8FE59AEE0197F1F700C089
:100E600000004A9BF4CF712CF12CE12C912C812CA9
:100E7000B12CA12C2BE9D22E3AE0532E40EA642E5D
:100E8000C12C96E9492E772009F443C00E94450100
:100E90008C31B9F1A114B10409F466C04701712C79
:100EA00038C08E51823008F0B4CFBBCFEA81FB81CD
:100EB000E082E182AECFEA81FB811083F182A9CF8B
:100EC000EA81FB8110821183A4CFCC20C9F20E9459
:100ED0004501873031F0A114B10469F04701C12EFA
:100EE000D2CF0E9445018F30B1F70E944501833077
:100EF00091F71C2DF4CF5701F12CE12C92E499834A
:100F0000EECF0E9445018E3129F60E9445018831BD
:100F100009F60E944501803208F030C0E82FF0E069
:100F2000EC56F84F0C94610A2708BE07C5072D0838
:100F3000BA07BE07C0072D08CF07BE07BE07BE070A
:100F4000CA07BE07BE072D08BE07BE07BE07BE07FD
:100F5000BE07BE07BE07BE074B08BE07BE07BE07DB
:100F60004B08BE074B08D3075701F12CE12CE1E4F5
:100F7000E98395CFEA81FB81D082D18210E01AC04B
:100F8000EA81FB8160824182F9CFEA81FB81608244
:100F90005182F4CFEA81FB8140826182EFCFEA8106
:100FA000FB811082FACFEA81FB81D082D18210E0EE
:100FB000F12CE12C9FEFE91AF90AEA81FB8181818A
:100FC00020E040E060818A500E943F05112309F42F
:100FD0007CCF20E040E060E080E00E943F05AA0C6A
:100FE000BB1C81E4A814B90408F482E418B8F981A0
:100FF000F13409F076C0813409F06FC088E088B917
:101000002FEF87EA91E6215080409040E1F700C041
:1010100000004A9BFECFEFE5FAEE3197F1F700C0F2
:1010200000004A9BF6CF0F900F900F90DF91CF9169
:101030001F910F91FF90EF90DF90CF90BF90AF90F6
:101040009F908F907F906F905F904F900895EA816E
:10105000FB8110825182102FADCFEA81FB81D082BB
:10106000D182FFE728E381E0F15020408040E1F7A2
:1010700000C000000E944501873059F10E944501DF
:101080008F3039F10E944501CC24C394833009F498
:1010900075CFC12C73CFEA81FB81D082D182FFE76B
:1010A00028E381E0F15020408040E1F700C00000DB
:1010B0000E9445018C3179F00E9445018E3159F032
:1010C0000E94450177247394883109F457CF712C1D
:1010D00055CFC02E53CF702E51CF84E090CF81E0FA
:1010E0008ECF8134E1F782E08ACF2F923F925F92D8
:1010F0006F927F928F929F92AF92BF92CF92DF9228
:10110000EF92FF920F931F93CF93DF93CDB7DEB78C
:10111000CB54D1090FB6F894DEBF0FBECDBF7C0112
:101120003D98312C212C30E06E016CE4C60ED11CB0
:10113000552453948BE4A82EB12C9BE4692E88246B
:101140008394912CD7018C9181118CC0DE01119672
:10115000CD018D0146B145FB442740F94525FC01F1
:101160004193CF01EFEAF4E03197F1F700C00000BE
:10117000C816D90679F780E04D9191E0980F442385
:1011800011F0292F782E892F9B34B1F7822F90E010
:10119000D801A80FB91F2C913F5F211101C030E089
:1011A0000196B5010E944D0A282F781661F034305F
:1011B00068F3D801A80FB91F4C914111C3CFA82FD4
:1011C00050E040E003C0272DBDCFA22F21E02A0F21
:1011D000822F662D0E94410AB801690F711DFB0123
:1011E0008081882309F4AECF22E02A0F822F662D5A
:1011F0000E94410AB801690F711DFB01808188239B
:1012000089F023E02A0FD801A20FB11D8C91811122
:1012100099CFC401042E02C0880F991F0A94E2F7E7
:10122000282A392A4F5F5F4F4C30510571F6822DC5
:101230008F77C55BDF4F0FB6F894DEBF0FBECDBF13
:10124000DF91CF911F910F91FF90EF90DF90CF90A2
:10125000BF90AF909F908F907F906F905F903F90E6
:101260002F90089580E0E5CF10927C0086E880936F
:101270007A00089510927A00089580917C00807E13
:1012800080937C0080917C006770682B60937C0069
:1012900080917A00806480937A0080917A0084FF44
:1012A000FCCF80917A00806180937A002091780051
:1012B00090917900892F90E0982F8827820F911DB7
:1012C0000895BF92CF92DF92EF92FF920F931F93F8
:1012D000CF93DF9300D01F92CDB7DEB70E94E80016
:1012E00019828AE08A8384E991E00E947508182FA8
:1012F000811109C080919601811103C0109195015F
:10130000F9CF109295011B8384E0C82E98E0B92E86
:1013100020EAF22E3AE0E32E4BE9D42E8B81823084
:1013200009F491C050F58130E1F1AE014D5F5F4F9E
:10133000612FCE0101960E9473048B818113EECF41
:1013400081E50E9452052FEF83ED90E3215080400C
:101350009040E1F700C000000E94870590E080E027
:101360000F900F900F90DF91CF911F910F91FF90F1
:10137000EF90DF90CF90BF900895833009F472C052
:10138000843099F6B8B82FEF89E698E12150804073
:101390009040E1F700C00000CE0101960E946A0172
:1013A000C4CF88B92FEF89E698E121508040904062
:1013B000E1F700C000000E9445018830C9F140F407
:1013C000843081F1873049F0823079F100E008C043
:1013D0008C3119F018F58F30C9F7EA82198201E0D3
:1013E0008A8120E040E069818A500E943F05002305
:1013F00011F320E040E060E080E00E943F050E94A1
:10140000E80084E991E00E947508811116C090916E
:101410009601911110C080919501F9CF8E518230C3
:10142000A8F6DBCFD982DA82D1CFF982EA82CECF99
:101430001982FA82CBCF10929501682FCE010196C6
:101440000E943E0472CF88B92FEF89E698E12150BF
:1014500080409040E1F700C00000CE0101960E945C
:101460008C0563CFC8B82FEF89E698E12150804002
:101470009040E1F700C00000CE0101960E94E00616
:1014800054CF991B79E004C0991F961708F0961B5A
:10149000881F7A95C9F78095089597FB072E16F453
:1014A000009407D077FD09D00E94670A07FC05D099
:1014B0003EF4909581959F4F0895709561957F4F6B
:1014C0000895EE0FFF1F0590F491E02D0994AA1BDB
:1014D000BB1B51E107C0AA1FBB1FA617B70710F01F
:1014E000A61BB70B881F991F5A95A9F78095909551
:1014F000BC01CD0108950E948F0A0C94330B0E9409
:101500002C0B58F00E94250B40F029F45F3F29F086
:101510000C941C0B51110C94670B0C94220B0E9421
:10152000440B68F39923B1F3552391F3951B550BA5
:10153000BB27AA2762177307840738F09F5F5F4FA6
:10154000220F331F441FAA1FA9F335D00E2E3AF0E5
:10155000E0E832D091505040E695001CCAF72BD0FD
:10156000FE2F29D0660F771F881FBB1F261737074E
:101570004807AB07B0E809F0BB0B802DBF01FF2780
:1015800093585F4F3AF09E3F510578F00C941C0B36
:101590000C94670B5F3FE4F3983ED4F38695779500
:1015A0006795B795F7959F5FC9F7880F911D969539
:1015B000879597F90895E1E0660F771F881FBB1F95
:1015C000621773078407BA0720F0621B730B840B42
:1015D000BA0BEE1F88F7E09508950E944C0B88F037
:1015E0009F5798F0B92F9927B751B0F0E1F0660FE7
:1015F000771F881F991F1AF0BA95C9F714C0B13028
:1016000091F00E94660BB1E008950C94660B672F71
:10161000782F8827B85F39F0B93FCCF38695779556
:101620006795B395D9F73EF490958095709561953F
:101630007F4F8F4F9F4F089597F99F6780E870E025
:1016400060E008959FEF80EC089500240A94161638
:10165000170618060906089500240A9412161306A0
:10166000140605060895092E0394000C11F488232E
:1016700052F0BB0F40F4BF2B11F460FF04C06F5F4A
:101680007F4F8F4F9F4F089557FD9058440F551F20
:1016900059F05F3F71F04795880F97FB991F61F0F4
:1016A0009F3F79F087950895121613061406551F6B
:1016B000F2CF4695F1DF08C0161617061806991FD7
:1016C000F1CF86957105610508940895E894BB27CC
:1016D00066277727CB0197F908950E94800B0C9419
:1016E000330B0E94250B38F00E942C0B20F0952321
:1016F00011F00C941C0B0C94220B11240C94670B0E
:101700000E94440B70F3959FC1F3950F50E0551F55
:10171000629FF001729FBB27F00DB11D639FAA2746
:10172000F00DB11DAA1F649F6627B00DA11D661F95
:10173000829F2227B00DA11D621F739FB00DA11DB6
:10174000621F839FA00D611D221F749F3327A00D70
:10175000611D231F849F600D211D822F762F6A2F0C
:1017600011249F5750409AF0F1F088234AF0EE0F71
:10177000FF1FBB1F661F771F881F91505040A9F79E
:101780009E3F510580F00C941C0B0C94670B5F3F3F
:10179000E4F3983ED4F3869577956795B795F795DA
:1017A000E7959F5FC1F7FE2B880F911D9695879552
:0817B00097F90895F894FFCFAA
:1017B8000000DC42F614E94210F1F64213D002436D
:1017C8006097024317D5124341901B4354D02443DA
:1017D800379D2E4349FF38436AFF434300A74F43D1
:1017E80000005C43F614694310F1764313D082433A
:1017F80060978A4317D5924341909B4354D0A443A2
:10180800379DAE4349FFB8436AFFC34300A7CF43A0
:101818000000DC43F614E94310F1F64313D0024408
:1018280060970A4417D5124441901B4454D024446D
:10183800B6E98A4249FF38446AFF434400A74F4447
:0418480000005C44FC
:00000001FF
