:100000000C943E000C946B000C9450000C94500027
:100010000C9450000C9450000C9450000C94500020
:100020000C9450000C9450000C9450000C94500010
:100030000C9450000C94AB000C9450000C945000A5
:100040000C9450000C9450000C9450000C945000F0
:100050000C9450000C9450000C9450000C945000E0
:100060000C9450000C9450000C9450000C945000D0
:100070000C9450000C9450000C94500011241FBE9E
:10008000CFEFD8E0DEBFCDBF21E0A0E0B1E001C0FE
:100090001D92A330B207E1F70E944E010C94650156
:1000A0000C940000109201011092850010928400BF
:1000B000909389008093880010928000E1E8F0E03E
:1000C00080818D60808310928200EFE6F0E0808175
:1000D0008260808308951F920F920FB60F921124B1
:1000E0002F933F934F935F936F937F938F939F9340
:1000F000AF93BF93EF93FF938091010181111AC0D9
:100100008FE59AEE0197F1F700C000004A9B12C0FC
:100110004A99FECF809102018F5F80930201809106
:1001200002018A3019F481E08093020188E09DE3A6
:100130000E945200FF91EF91BF91AF919F918F91DB
:100140007F916F915F914F913F912F910F900FBED3
:100150000F901F9018951F920F920FB60F921124B7
:100160008F9381E0809301018F910F900FBE0F90CC
:100170001F901895F8948FEF87B9E89AE9E6F0E0B8
:100180008081816080837894089584B18C6084B983
:100190002A9882E484BD81E085BD089588E687BD04
:1001A0008FEB92E10197F1F700C0000017BC8FEAD6
:1001B00094E00197F1F700C00000089598E697BD1C
:1001C000EFEAF4E03197F1F700C00000882359F01E
:1001D0008FEA94E00197F1F700C0000080910001E0
:1001E0008F5F8093000117BCEFEAF4E03197F1F7DD
:1001F00000C000000895C82F0E94C500DC2FD170F8
:10020000C1FB112710F9C2FB002700F9C3FBCC2763
:10021000C0F985E0F82E0E94CE008D2F0E94DE00EE
:10022000812F0E94DE00802F0E94DE008C2F0E9412
:10023000DE0080E00E94DE0080E00E94DE0080E0C0
:100240000E94DE0081E00E94DE0080E00E94DE006D
:1002500080E00E94DE0080E00E94DE0080E00E94DC
:10026000DE0017BC8FE290EC0197F1F700C00000B0
:10027000809100019F2D981B9093000180E0909148
:100280000001891740F4EFEAF4E03197F1F700C07C
:1002900000008F5FF4CF10920001BDCF0E94BA0022
:1002A00091E022E080910201893009F498B98091AF
:1002B0000201813009F428B980910101882391F36A
:0E02C000F894809102010E94FB00F894FFCF99
:00000001FF
